{
    "contractName": "ETHTokenBank",
    "abi": [
        {
            "constant": false,
            "inputs": [
                {
                    "name": "account",
                    "type": "address"
                }
            ],
            "name": "authorizeCroupier",
            "outputs": [],
            "payable": false,
            "stateMutability": "nonpayable",
            "type": "function"
        },
        {
            "constant": false,
            "inputs": [
                {
                    "name": "time",
                    "type": "uint256"
                }
            ],
            "name": "changeReleaseTime",
            "outputs": [],
            "payable": false,
            "stateMutability": "nonpayable",
            "type": "function"
        },
        {
            "constant": false,
            "inputs": [],
            "name": "unpause",
            "outputs": [],
            "payable": false,
            "stateMutability": "nonpayable",
            "type": "function"
        },
        {
            "constant": true,
            "inputs": [],
            "name": "paused",
            "outputs": [
                {
                    "name": "",
                    "type": "bool"
                }
            ],
            "payable": false,
            "stateMutability": "view",
            "type": "function"
        },
        {
            "constant": true,
            "inputs": [],
            "name": "totalPlayerBalance",
            "outputs": [
                {
                    "name": "",
                    "type": "uint256"
                }
            ],
            "payable": false,
            "stateMutability": "view",
            "type": "function"
        },
        {
            "constant": true,
            "inputs": [
                {
                    "name": "",
                    "type": "address"
                }
            ],
            "name": "withdrawals",
            "outputs": [
                {
                    "name": "amount",
                    "type": "uint256"
                },
                {
                    "name": "timestamp",
                    "type": "uint256"
                }
            ],
            "payable": false,
            "stateMutability": "view",
            "type": "function"
        },
        {
            "constant": false,
            "inputs": [],
            "name": "pause",
            "outputs": [],
            "payable": false,
            "stateMutability": "nonpayable",
            "type": "function"
        },
        {
            "constant": true,
            "inputs": [],
            "name": "maxWithdrawal",
            "outputs": [
                {
                    "name": "",
                    "type": "uint256"
                }
            ],
            "payable": false,
            "stateMutability": "view",
            "type": "function"
        },
        {
            "constant": true,
            "inputs": [],
            "name": "owner",
            "outputs": [
                {
                    "name": "",
                    "type": "address"
                }
            ],
            "payable": false,
            "stateMutability": "view",
            "type": "function"
        },
        {
            "constant": false,
            "inputs": [
                {
                    "name": "account",
                    "type": "address"
                }
            ],
            "name": "changeOwner",
            "outputs": [],
            "payable": false,
            "stateMutability": "nonpayable",
            "type": "function"
        },
        {
            "constant": false,
            "inputs": [
                {
                    "name": "account",
                    "type": "address"
                }
            ],
            "name": "authorizeAccount",
            "outputs": [],
            "payable": false,
            "stateMutability": "nonpayable",
            "type": "function"
        },
        {
            "constant": false,
            "inputs": [
                {
                    "name": "account",
                    "type": "address"
                }
            ],
            "name": "unauthorizeAccount",
            "outputs": [],
            "payable": false,
            "stateMutability": "nonpayable",
            "type": "function"
        },
        {
            "constant": true,
            "inputs": [
                {
                    "name": "",
                    "type": "address"
                }
            ],
            "name": "authorized",
            "outputs": [
                {
                    "name": "",
                    "type": "bool"
                }
            ],
            "payable": false,
            "stateMutability": "view",
            "type": "function"
        },
        {
            "constant": true,
            "inputs": [],
            "name": "releaseTime",
            "outputs": [
                {
                    "name": "",
                    "type": "uint256"
                }
            ],
            "payable": false,
            "stateMutability": "view",
            "type": "function"
        },
        {
            "constant": true,
            "inputs": [
                {
                    "name": "",
                    "type": "address"
                }
            ],
            "name": "croupier",
            "outputs": [
                {
                    "name": "",
                    "type": "bool"
                }
            ],
            "payable": false,
            "stateMutability": "view",
            "type": "function"
        },
        {
            "constant": false,
            "inputs": [
                {
                    "name": "account",
                    "type": "address"
                }
            ],
            "name": "unauthorizeCroupier",
            "outputs": [],
            "payable": false,
            "stateMutability": "nonpayable",
            "type": "function"
        },
        {
            "inputs": [
                {
                    "name": "_authorized",
                    "type": "address"
                },
                {
                    "name": "_owner",
                    "type": "address"
                }
            ],
            "payable": false,
            "stateMutability": "nonpayable",
            "type": "constructor"
        },
        {
            "anonymous": false,
            "inputs": [
                {
                    "indexed": false,
                    "name": "_player",
                    "type": "address"
                },
                {
                    "indexed": false,
                    "name": "_amount",
                    "type": "uint256"
                }
            ],
            "name": "Deposit",
            "type": "event"
        },
        {
            "anonymous": false,
            "inputs": [
                {
                    "indexed": false,
                    "name": "_player",
                    "type": "address"
                },
                {
                    "indexed": false,
                    "name": "_amount",
                    "type": "uint256"
                }
            ],
            "name": "WithdrawalEvent",
            "type": "event"
        },
        {
            "anonymous": false,
            "inputs": [
                {
                    "indexed": false,
                    "name": "_player",
                    "type": "address"
                },
                {
                    "indexed": false,
                    "name": "_amount",
                    "type": "uint256"
                }
            ],
            "name": "WithdrawalSet",
            "type": "event"
        },
        {
            "anonymous": false,
            "inputs": [
                {
                    "indexed": false,
                    "name": "_maxWithdrawal",
                    "type": "uint256"
                }
            ],
            "name": "MaxWithdrawalChange",
            "type": "event"
        },
        {
            "anonymous": false,
            "inputs": [],
            "name": "Pause",
            "type": "event"
        },
        {
            "anonymous": false,
            "inputs": [],
            "name": "Unpause",
            "type": "event"
        },
        {
            "constant": true,
            "inputs": [],
            "name": "bankroll",
            "outputs": [
                {
                    "name": "",
                    "type": "uint256"
                }
            ],
            "payable": false,
            "stateMutability": "view",
            "type": "function"
        },
        {
            "constant": false,
            "inputs": [
                {
                    "name": "_player",
                    "type": "address"
                },
                {
                    "name": "_amount",
                    "type": "uint256"
                }
            ],
            "name": "setUserWithdrawal",
            "outputs": [],
            "payable": false,
            "stateMutability": "nonpayable",
            "type": "function"
        },
        {
            "constant": false,
            "inputs": [
                {
                    "name": "_players",
                    "type": "address[]"
                },
                {
                    "name": "_amount",
                    "type": "uint256[]"
                }
            ],
            "name": "setUserWithdrawalBatch",
            "outputs": [],
            "payable": false,
            "stateMutability": "nonpayable",
            "type": "function"
        },
        {
            "constant": false,
            "inputs": [
                {
                    "name": "_totalPlayerBalance",
                    "type": "uint256"
                },
                {
                    "name": "_amount",
                    "type": "uint256"
                }
            ],
            "name": "setOwnerWithdrawal",
            "outputs": [],
            "payable": false,
            "stateMutability": "nonpayable",
            "type": "function"
        },
        {
            "constant": false,
            "inputs": [
                {
                    "name": "_newContract",
                    "type": "address"
                }
            ],
            "name": "updateToNewContract",
            "outputs": [],
            "payable": false,
            "stateMutability": "nonpayable",
            "type": "function"
        },
        {
            "constant": false,
            "inputs": [
                {
                    "name": "_max",
                    "type": "uint256"
                }
            ],
            "name": "changeMaxWithdrawal",
            "outputs": [],
            "payable": false,
            "stateMutability": "nonpayable",
            "type": "function"
        },
        {
            "constant": false,
            "inputs": [
                {
                    "name": "_destination",
                    "type": "address"
                },
                {
                    "name": "_amount",
                    "type": "uint256"
                }
            ],
            "name": "ownerWithdrawalEther",
            "outputs": [],
            "payable": false,
            "stateMutability": "nonpayable",
            "type": "function"
        },
        {
            "constant": false,
            "inputs": [
                {
                    "name": "_tokenAddress",
                    "type": "address"
                }
            ],
            "name": "withdrawAccidentalSentTokens",
            "outputs": [],
            "payable": false,
            "stateMutability": "nonpayable",
            "type": "function"
        },
        {
            "constant": false,
            "inputs": [
                {
                    "name": "_destination",
                    "type": "address"
                },
                {
                    "name": "_amount",
                    "type": "uint256"
                }
            ],
            "name": "ownerWithdrawalTokens",
            "outputs": [],
            "payable": false,
            "stateMutability": "nonpayable",
            "type": "function"
        }
    ],
    "bytecode": "0x6080604052336000806101000a81548173ffffffffffffffffffffffffffffffffffffffff021916908373ffffffffffffffffffffffffffffffffffffffff1602179055506000600155600060045534801561005a57600080fd5b50604051604080611a6a8339810180604052604081101561007a57600080fd5b810190808051906020019092919080519060200190929190505050806000806101000a81548173ffffffffffffffffffffffffffffffffffffffff021916908373ffffffffffffffffffffffffffffffffffffffff1602179055506001600260008473ffffffffffffffffffffffffffffffffffffffff1673ffffffffffffffffffffffffffffffffffffffff16815260200190815260200160002060006101000a81548160ff0219169083151502179055506001600260008060009054906101000a900473ffffffffffffffffffffffffffffffffffffffff1673ffffffffffffffffffffffffffffffffffffffff1673ffffffffffffffffffffffffffffffffffffffff16815260200190815260200160002060006101000a81548160ff02191690831515021790555050506118b3806101b76000396000f3fe608060405234801561001057600080fd5b50600436106101735760003560e01c80638c0ff5b7116100de578063b91d400111610097578063df58410a11610071578063df58410a14610617578063ef40b7ee1461065b578063f5b235b114610729578063f9a4a7561461076157610173565b8063b91d400114610559578063c74058be14610577578063c832b338146105bb57610173565b80638c0ff5b7146103c95780638da5cb5b146103e7578063a6f9dae114610431578063a9a8679b14610475578063b0b2a575146104b9578063b9181611146104fd57610173565b80633f4ba83a116101305780633f4ba83a146102e857806340e1eaf2146102f25780635c975abb146103205780636e30418b146103425780637a9262a2146103605780638456cb59146103bf57610173565b806303df234d146101785780630c657eb0146101bc57806324861c03146101da578063275ba344146102285780632e0f2ce11461027657806339234948146102a4575b600080fd5b6101ba6004803603602081101561018e57600080fd5b81019080803573ffffffffffffffffffffffffffffffffffffffff1690602001909291905050506107af565b005b6101c4610860565b6040518082815260200191505060405180910390f35b610226600480360360408110156101f057600080fd5b81019080803573ffffffffffffffffffffffffffffffffffffffff1690602001909291908035906020019092919050505061088a565b005b6102746004803603604081101561023e57600080fd5b81019080803573ffffffffffffffffffffffffffffffffffffffff16906020019092919080359060200190929190505050610adc565b005b6102a26004803603602081101561028c57600080fd5b8101908080359060200190929190505050610b7d565b005b6102e6600480360360208110156102ba57600080fd5b81019080803573ffffffffffffffffffffffffffffffffffffffff169060200190929190505050610bdd565b005b6102f0610ddf565b005b61031e6004803603602081101561030857600080fd5b8101908080359060200190929190505050610e7d565b005b610328610f2b565b604051808215151515815260200191505060405180910390f35b61034a610f3e565b6040518082815260200191505060405180910390f35b6103a26004803603602081101561037657600080fd5b81019080803573ffffffffffffffffffffffffffffffffffffffff169060200190929190505050610f44565b604051808381526020018281526020019250505060405180910390f35b6103c7610f68565b005b6103d1611007565b6040518082815260200191505060405180910390f35b6103ef61100d565b604051808273ffffffffffffffffffffffffffffffffffffffff1673ffffffffffffffffffffffffffffffffffffffff16815260200191505060405180910390f35b6104736004803603602081101561044757600080fd5b81019080803573ffffffffffffffffffffffffffffffffffffffff169060200190929190505050611032565b005b6104b76004803603602081101561048b57600080fd5b81019080803573ffffffffffffffffffffffffffffffffffffffff1690602001909291905050506110cb565b005b6104fb600480360360208110156104cf57600080fd5b81019080803573ffffffffffffffffffffffffffffffffffffffff16906020019092919050505061117c565b005b61053f6004803603602081101561051357600080fd5b81019080803573ffffffffffffffffffffffffffffffffffffffff16906020019092919050505061122d565b604051808215151515815260200191505060405180910390f35b61056161124d565b6040518082815260200191505060405180910390f35b6105b96004803603602081101561058d57600080fd5b81019080803573ffffffffffffffffffffffffffffffffffffffff169060200190929190505050611253565b005b6105fd600480360360208110156105d157600080fd5b81019080803573ffffffffffffffffffffffffffffffffffffffff16906020019092919050505061131c565b604051808215151515815260200191505060405180910390f35b6106596004803603602081101561062d57600080fd5b81019080803573ffffffffffffffffffffffffffffffffffffffff16906020019092919050505061133c565b005b6107276004803603604081101561067157600080fd5b810190808035906020019064010000000081111561068e57600080fd5b8201836020820111156106a057600080fd5b803590602001918460208302840111640100000000831117156106c257600080fd5b9091929391929390803590602001906401000000008111156106e357600080fd5b8201836020820111156106f557600080fd5b8035906020019184602083028401116401000000008311171561071757600080fd5b90919293919293905050506113ed565b005b61075f6004803603604081101561073f57600080fd5b8101908080359060200190929190803590602001909291905050506114d9565b005b6107ad6004803603604081101561077757600080fd5b81019080803573ffffffffffffffffffffffffffffffffffffffff1690602001909291908035906020019092919050505061171d565b005b6000809054906101000a900473ffffffffffffffffffffffffffffffffffffffff1673ffffffffffffffffffffffffffffffffffffffff163373ffffffffffffffffffffffffffffffffffffffff161461080557fe5b6001600360008373ffffffffffffffffffffffffffffffffffffffff1673ffffffffffffffffffffffffffffffffffffffff16815260200190815260200160002060006101000a81548160ff02191690831515021790555050565b60006108853073ffffffffffffffffffffffffffffffffffffffff1631600554611853565b905090565b6000809054906101000a900473ffffffffffffffffffffffffffffffffffffffff1673ffffffffffffffffffffffffffffffffffffffff163373ffffffffffffffffffffffffffffffffffffffff16146108e057fe5b60001515600060149054906101000a900460ff16151514801561090a5750610906610860565b8111155b80156109585750600660003373ffffffffffffffffffffffffffffffffffffffff1673ffffffffffffffffffffffffffffffffffffffff168152602001908152602001600020600001548111155b80610976575060011515600060149054906101000a900460ff161515145b61097f57600080fd5b8173ffffffffffffffffffffffffffffffffffffffff166108fc829081150290604051600060405180830381858888f193505050501580156109c5573d6000803e3d6000fd5b50600060149054906101000a900460ff16610a6d57610a26600660003373ffffffffffffffffffffffffffffffffffffffff1673ffffffffffffffffffffffffffffffffffffffff1681526020019081526020016000206000015482611853565b600660003373ffffffffffffffffffffffffffffffffffffffff1673ffffffffffffffffffffffffffffffffffffffff168152602001908152602001600020600001819055505b7f2f174ca282119315c59efaf21147aef438581dabdeb498198ae28964373dd8bc3082604051808373ffffffffffffffffffffffffffffffffffffffff1673ffffffffffffffffffffffffffffffffffffffff1681526020018281526020019250505060405180910390a15050565b6000809054906101000a900473ffffffffffffffffffffffffffffffffffffffff1673ffffffffffffffffffffffffffffffffffffffff163373ffffffffffffffffffffffffffffffffffffffff1614610b3257fe5b8173ffffffffffffffffffffffffffffffffffffffff166108fc829081150290604051600060405180830381858888f19350505050158015610b78573d6000803e3d6000fd5b505050565b6000809054906101000a900473ffffffffffffffffffffffffffffffffffffffff1673ffffffffffffffffffffffffffffffffffffffff163373ffffffffffffffffffffffffffffffffffffffff1614610bd357fe5b8060018190555050565b6000809054906101000a900473ffffffffffffffffffffffffffffffffffffffff1673ffffffffffffffffffffffffffffffffffffffff163373ffffffffffffffffffffffffffffffffffffffff1614610c3357fe5b60008190508073ffffffffffffffffffffffffffffffffffffffff1663a9059cbb6000809054906101000a900473ffffffffffffffffffffffffffffffffffffffff168373ffffffffffffffffffffffffffffffffffffffff166370a08231306040518263ffffffff1660e01b8152600401808273ffffffffffffffffffffffffffffffffffffffff1673ffffffffffffffffffffffffffffffffffffffff16815260200191505060206040518083038186803b158015610cf357600080fd5b505afa158015610d07573d6000803e3d6000fd5b505050506040513d6020811015610d1d57600080fd5b81019080805190602001909291905050506040518363ffffffff1660e01b8152600401808373ffffffffffffffffffffffffffffffffffffffff1673ffffffffffffffffffffffffffffffffffffffff16815260200182815260200192505050602060405180830381600087803b158015610d9757600080fd5b505af1158015610dab573d6000803e3d6000fd5b505050506040513d6020811015610dc157600080fd5b8101908080519060200190929190505050610ddb57600080fd5b5050565b6000809054906101000a900473ffffffffffffffffffffffffffffffffffffffff1673ffffffffffffffffffffffffffffffffffffffff163373ffffffffffffffffffffffffffffffffffffffff1614610e3557fe5b60008060146101000a81548160ff0219169083151502179055507f7805862f689e2f13df9f062ff482ad3ad112aca9e0847911ed832e158c525b3360405160405180910390a1565b600060149054906101000a900460ff1615610e9457fe5b6000809054906101000a900473ffffffffffffffffffffffffffffffffffffffff1673ffffffffffffffffffffffffffffffffffffffff163373ffffffffffffffffffffffffffffffffffffffff1614610eea57fe5b806004819055507f22806588c55fbd6351d4dad507eb99ddd3448630220e6515737f5a5b329e727a816040518082815260200191505060405180910390a150565b600060149054906101000a900460ff1681565b60055481565b60066020528060005260406000206000915090508060000154908060010154905082565b6000809054906101000a900473ffffffffffffffffffffffffffffffffffffffff1673ffffffffffffffffffffffffffffffffffffffff163373ffffffffffffffffffffffffffffffffffffffff1614610fbe57fe5b6001600060146101000a81548160ff0219169083151502179055507f6985a02210a168e66602d3235cb6db0e70f92b3ba4d376a33c0f3d9434bff62560405160405180910390a1565b60045481565b6000809054906101000a900473ffffffffffffffffffffffffffffffffffffffff1681565b6000809054906101000a900473ffffffffffffffffffffffffffffffffffffffff1673ffffffffffffffffffffffffffffffffffffffff163373ffffffffffffffffffffffffffffffffffffffff161461108857fe5b806000806101000a81548173ffffffffffffffffffffffffffffffffffffffff021916908373ffffffffffffffffffffffffffffffffffffffff16021790555050565b6000809054906101000a900473ffffffffffffffffffffffffffffffffffffffff1673ffffffffffffffffffffffffffffffffffffffff163373ffffffffffffffffffffffffffffffffffffffff161461112157fe5b6001600260008373ffffffffffffffffffffffffffffffffffffffff1673ffffffffffffffffffffffffffffffffffffffff16815260200190815260200160002060006101000a81548160ff02191690831515021790555050565b6000809054906101000a900473ffffffffffffffffffffffffffffffffffffffff1673ffffffffffffffffffffffffffffffffffffffff163373ffffffffffffffffffffffffffffffffffffffff16146111d257fe5b6000600260008373ffffffffffffffffffffffffffffffffffffffff1673ffffffffffffffffffffffffffffffffffffffff16815260200190815260200160002060006101000a81548160ff02191690831515021790555050565b60026020528060005260406000206000915054906101000a900460ff1681565b60015481565b6000809054906101000a900473ffffffffffffffffffffffffffffffffffffffff1673ffffffffffffffffffffffffffffffffffffffff163373ffffffffffffffffffffffffffffffffffffffff16146112a957fe5b6112b1610f68565b6112bb6000610e7d565b8073ffffffffffffffffffffffffffffffffffffffff166108fc3073ffffffffffffffffffffffffffffffffffffffff16319081150290604051600060405180830381858888f19350505050158015611318573d6000803e3d6000fd5b5050565b60036020528060005260406000206000915054906101000a900460ff1681565b6000809054906101000a900473ffffffffffffffffffffffffffffffffffffffff1673ffffffffffffffffffffffffffffffffffffffff163373ffffffffffffffffffffffffffffffffffffffff161461139257fe5b6000600360008373ffffffffffffffffffffffffffffffffffffffff1673ffffffffffffffffffffffffffffffffffffffff16815260200190815260200160002060006101000a81548160ff02191690831515021790555050565b600060149054906101000a900460ff161561140457fe5b60011515600260003373ffffffffffffffffffffffffffffffffffffffff1673ffffffffffffffffffffffffffffffffffffffff16815260200190815260200160002060009054906101000a900460ff1615151461145e57fe5b81819050848490501461147057600080fd5b60008090505b848490508110156114d2576114c585858381811061149057fe5b9050602002013573ffffffffffffffffffffffffffffffffffffffff168484848181106114b957fe5b9050602002013561171d565b8080600101915050611476565b5050505050565b600060149054906101000a900460ff16156114f057fe5b60011515600360003373ffffffffffffffffffffffffffffffffffffffff1673ffffffffffffffffffffffffffffffffffffffff16815260200190815260200160002060009054906101000a900460ff1615151461154a57fe5b816005819055506115be600660008060009054906101000a900473ffffffffffffffffffffffffffffffffffffffff1673ffffffffffffffffffffffffffffffffffffffff1673ffffffffffffffffffffffffffffffffffffffff168152602001908152602001600020600001548261186d565b600660008060009054906101000a900473ffffffffffffffffffffffffffffffffffffffff1673ffffffffffffffffffffffffffffffffffffffff1673ffffffffffffffffffffffffffffffffffffffff1681526020019081526020016000206000018190555042600660008060009054906101000a900473ffffffffffffffffffffffffffffffffffffffff1673ffffffffffffffffffffffffffffffffffffffff1673ffffffffffffffffffffffffffffffffffffffff168152602001908152602001600020600101819055507f38ad611b8ae457b9126d4917f4ded0b60a8fbbfdd0dd4b04fc9469688b44934f6000809054906101000a900473ffffffffffffffffffffffffffffffffffffffff1682604051808373ffffffffffffffffffffffffffffffffffffffff1673ffffffffffffffffffffffffffffffffffffffff1681526020018281526020019250505060405180910390a15050565b600060149054906101000a900460ff161561173457fe5b60011515600260003373ffffffffffffffffffffffffffffffffffffffff1673ffffffffffffffffffffffffffffffffffffffff16815260200190815260200160002060009054906101000a900460ff1615151461178e57fe5b60045481111561179d57600080fd5b8173ffffffffffffffffffffffffffffffffffffffff166108fc829081150290604051600060405180830381858888f193505050501580156117e3573d6000803e3d6000fd5b507f2f174ca282119315c59efaf21147aef438581dabdeb498198ae28964373dd8bc8282604051808373ffffffffffffffffffffffffffffffffffffffff1673ffffffffffffffffffffffffffffffffffffffff1681526020018281526020019250505060405180910390a15050565b600082828403915081111561186757600080fd5b92915050565b600082828401915081101561188157600080fd5b9291505056fea165627a7a72305820e10a057680479f7ebe7791eba41e455080f6dff5ea708de7f48e76133844dea80029",
    "source": "pragma solidity 0.5.8; \n\n/**\n  * @title DSMath\n  * @author MakerDAO\n  * @notice Safe math contracts from Maker.\n  */\ncontract DSMath {\n    function add(uint x, uint y) internal pure returns (uint z) {\n        require((z = x + y) >= x);\n    }\n    function sub(uint x, uint y) internal pure returns (uint z) {\n        require((z = x - y) <= x);\n    }\n    function mul(uint x, uint y) internal pure returns (uint z) {\n        require(y == 0 || (z = x * y) / y == x);\n    }\n\n    function min(uint x, uint y) internal pure returns (uint z) {\n        return x <= y ? x : y;\n    }\n    function max(uint x, uint y) internal pure returns (uint z) {\n        return x >= y ? x : y;\n    }\n    function imin(int x, int y) internal pure returns (int z) {\n        return x <= y ? x : y;\n    }\n    function imax(int x, int y) internal pure returns (int z) {\n        return x >= y ? x : y;\n    }\n}\n\n/**\n  * @title Owned\n  * @author BetProtocol\n  * @notice Basic owner properties.\n  */\ncontract Owned {\n    address public owner = msg.sender;\n\n    modifier isOwner {\n        assert(msg.sender == owner); _;\n    }\n\n    function changeOwner(address account) external isOwner {\n        owner = account;\n    }\n}\n\n/**\n  * @title ERC20Events\n  * @author EIP20 Authors\n  * @notice Primitive events for the ERC20 event specification.\n  */\ncontract ERC20Events {\n    event Transfer(address indexed from, address indexed to, uint256 tokens);\n    event Approval(address indexed tokenOwner, address indexed spender, uint256 tokens);\n}\n\n/**\n  * @title ERC20\n  * @author EIP/ERC20 Authors\n  * @author BokkyPooBah / Bok Consulting Pty Ltd 2018.\n  * @notice The ERC20 standard contract interface.\n  */\ncontract ERC20 is ERC20Events {\n    function totalSupply() external view returns (uint);\n    function balanceOf(address tokenOwner) public view returns (uint);\n    function allowance(address tokenOwner, address spender) external view returns (uint);\n\n    function approve(address spender, uint amount) public returns (bool);\n    function transfer(address to, uint amount) external returns (bool);\n    function transferFrom(address from, address to, uint amount) public returns (bool);\n}\n\n/**\n  * @title Authorized\n  * @author BetProtocol\n  * @notice Allows a second tier of authrozed accounts. In this case will be the server keys.\n  * Only the Owner multisig can authorize new accounts.\n  */\ncontract Authorized is Owned {\n    mapping(address => bool) public authorized;\n    mapping(address => bool) public croupier;\n\n    modifier isAuthorized {\n        assert(authorized[msg.sender] == true); _;\n    }\n\n    modifier isCroupier{\n        assert(croupier[msg.sender] == true); _;\n    }\n\n    function authorizeCroupier(address account) external isOwner {\n        croupier[account] = true;\n    }\n\n    function unauthorizeCroupier(address account) external isOwner {\n        croupier[account] = false;\n    }\n\n    function authorizeAccount(address account) external isOwner {\n        authorized[account] = true;\n    }\n\n    function unauthorizeAccount(address account) external isOwner {\n        authorized[account] = false;\n    }\n}\n\n/**\n  * @title TimeRelease\n  * @author BetProtocol\n  * @notice Controls the generic release time for authorized transactions.\n  */\ncontract TimeRelease is Owned {\n    uint256 public releaseTime = 0;\n    \n    function changeReleaseTime(uint256 time) external isOwner {\n        releaseTime = time;\n    }\n}\n\n/**\n  * @title Pausable\n  * @author BetProtocol\n  * @notice Primitive events, methods, properties for a contract which can be\n        paused by a single owner.\n  */\ncontract Pausable is Owned {\n    event Pause();\n    event Unpause();\n\n    bool public paused;\n\n    modifier pausable {\n        assert(!paused); _;\n    }\n\n    modifier isPaused {\n        assert(paused); _;\n    }\n\n    function pause() public isOwner {\n        paused = true;\n\n        emit Pause();\n    }\n\n    function unpause() public isOwner {\n        paused = false;\n\n        emit Unpause();\n    }\n}\n\n/**\n  * @title SingleTokenBank\n  * @author EIP/ERC20 Authors\n  * @author BokkyPooBah / Bok Consulting Pty Ltd 2018.\n  * @notice The ERC20 standard contract interface.\n  */\ncontract ETHTokenBank is Owned, Pausable, TimeRelease, Authorized, DSMath {\n    struct Withdrawal {\n        uint256 amount;\n        uint256 timestamp;\n    }\n\n    uint256 public maxWithdrawal = 0;\n    uint256 public totalPlayerBalance;\n    \n    mapping(address => Withdrawal) public withdrawals;\n\n\t// informs listeners how many tokens were deposited for a player\n\tevent Deposit(address _player, uint256 _amount);\n\n\t// informs listeners how many tokens were withdrawn from the player to the receiver address\n\tevent WithdrawalEvent(address _player, uint256 _amount);\n\t\n\t// set withdrawal\n\tevent WithdrawalSet(address _player, uint256 _amount);\n\t\t\n\t// max withdrawal changed\n\tevent MaxWithdrawalChange(uint256 _maxWithdrawal);\n\t\n\tconstructor(address _authorized, address _owner) public {\n\t   owner = _owner; // multisig\n\t   authorized[_authorized] = true; // your server address\n\t   authorized[owner] = true; // also multisig\n\t}\n\n\t/**\n\t * returns the current bankroll in tokens with 0 decimals\n\t **/\n\tfunction bankroll() view public returns(uint) {\n\t\treturn sub(address(this).balance, totalPlayerBalance);\n\t}\n\n    // set a withdrawal amount for a player\n\tfunction setUserWithdrawal(address payable _player, uint256 _amount) public pausable isAuthorized {\n\t    require(_amount <= maxWithdrawal); // check max withdrawal\n       \t_player.transfer(_amount);\n        emit WithdrawalEvent(_player, _amount);\n\t}\n\n    function setUserWithdrawalBatch(address[] calldata _players, uint256[] calldata _amount) external pausable isAuthorized {\n        require(_players.length == _amount.length);\n        for(uint i = 0; i < _players.length; i++) {\n            setUserWithdrawal(address(uint160(_players[i])), _amount[i]);\n        }\n    }\n\n    // set a withdrawal amount for the owner\n\tfunction setOwnerWithdrawal(uint256 _totalPlayerBalance, uint256 _amount) external pausable isCroupier {\n        totalPlayerBalance = _totalPlayerBalance;\n        withdrawals[owner].amount = add(withdrawals[owner].amount, _amount);\n        withdrawals[owner].timestamp = block.timestamp;\n        emit WithdrawalSet(owner, _amount);\n\t}\n\n    function updateToNewContract(address payable _newContract) external isOwner {\n        pause(); //pause Contract\n        changeMaxWithdrawal(0);\n        _newContract.transfer(address(this).balance);\n    }\n\n\tfunction changeMaxWithdrawal(uint256 _max) public pausable isOwner {\n\t    maxWithdrawal = _max;\n\t    emit MaxWithdrawalChange(_max);\n\t}\n\n\tfunction ownerWithdrawalEther(address payable _destination, uint256 _amount) external isOwner {\n\t\t_destination.transfer(_amount);\n\t}\n\n    function withdrawAccidentalSentTokens(address _tokenAddress) public isOwner {\n        ERC20 erc20 = ERC20(_tokenAddress);\n        require(erc20.transfer(owner, erc20.balanceOf(address(this))));\n\t}\n\n\tfunction ownerWithdrawalTokens(address payable _destination, uint256 _amount) external isOwner {\n\t    require((paused == false) && (_amount <= bankroll()) && (_amount <= withdrawals[msg.sender].amount) // only house winnings\n\t        || (paused == true)); // or take entire balance if paused..\n\t\t_destination.transfer(_amount);\n        if(!paused){\n\t\t    withdrawals[msg.sender].amount = sub(withdrawals[msg.sender].amount, _amount);\n        }\n\t\temit WithdrawalEvent(address(this), _amount);\n\t}\n}",
    "sourcePath": "/Users/ruipedro/Desktop/BetProtocol/ethereum/ethereum-tools/contracts/ETHBank.sol",
    "compiler": {
        "name": "solc",
        "version": "0.5.8+commit.23d335f2.Emscripten.clang"
    },
    "schemaVersion": "3.0.11",
    "updatedAt": "2020-01-05T14:48:17.448Z",
    "devdoc": {
        "author": "EIP/ERC20 AuthorsBokkyPooBah / Bok Consulting Pty Ltd 2018.",
        "methods": {},
        "title": "SingleTokenBank"
    },
    "userdoc": {
        "methods": {
            "bankroll()": {
                "notice": "returns the current bankroll in tokens with 0 decimals*"
            }
        },
        "notice": "The ERC20 standard contract interface."
    }
}